:020000040800F2
:100000001804002001010008450600080D0500083D
:1000100065050008B90100085F0B0008000000003A
:100020000000000000000000000000003D07000884
:10003000A90300080000000047060008290800087E
:100040001B0100081B0100081B0100081B01000820
:100050001B0100081B0100081B0100081B01000810
:100060001B0100081B0100081B0100081B01000800
:100070001B0100081B0100081B0100081B010008F0
:100080001B0100081B0100081B0100081B010008E0
:100090001B0100081B0100081B0100081B010008D0
:1000A0001B0100081B0100081B0100081B010008C0
:1000B0001B0100081B0100081B0100081B010008B0
:1000C0001B0100081B0100081B0100081B010008A0
:1000D0001B0100088D0800081B0100081B01000817
:1000E0001B0100081B0100081B010008DFF80CD0F1
:1000F00000F050F800480047310D000818040020B7
:100100000648804706480047FEE7FEE7FEE7FEE7B1
:10011000FEE7FEE7FEE7FEE7FEE7FEE72D08000844
:10012000ED000008D2B201E000F8012B491EFBD21D
:1001300070470022F6E710B513460A4604461946F2
:10014000FFF7F0FF204610BD30B5054600200346FE
:1001500000E05B1C934205D2EC5CC85C201A01D124
:10016000002CF6D130BD30B50B46014600202022D0
:10017000012409E021FA02F59D4205D303FA02F5B4
:10018000491B04FA02F52844151EA2F10102F1DC14
:1001900030BD0000064C074D06E0E06840F001036A
:1001A00094E8070098471034AC42F6D3FFF7A2FF5B
:1001B000340E0008540E000800BFFEE710B50024FE
:1001C00000F06EF803E0641C012000F00FFE1548FB
:1001D000006800F0080008B1502CF4DD214612A0A0
:1001E00000F0D4FC502C01DD012010BD002403E000
:1001F000641C012000F0FAFD0A48006800F00800C5
:1002000008B9502CF4DD21460AA000F0BFFC502CA8
:1002100001DD0120E9E7214609A000F0B7FC00203C
:10022000E3E70000080C0140315F636E743D256414
:100230000D0A0000325F636E743D25640D0A0000F4
:10024000335F636E743D25640D0A00007CB505467E
:100250000E4600200090019000F088F8FFF7AEFFF6
:10026000E8B9002404E000F071F80DF80400641C03
:10027000052CF8DB9DF800009DF8011008449DF85E
:10028000021008449DF8031008449DF804108842A9
:1002900005D19DF8000028709DF8020030707CBDEB
:1002A00008B50121082000F0CFF90820ADF80000C2
:1002B00004208DF8030003208DF8020069460248EF
:1002C00000F073F808BD0000000C014008B50121E2
:1002D000082000F0B9F90820ADF8000010208DF8D2
:1002E000030003208DF802006946024800F05DF823
:1002F00008BD0000000C014010B5002403E0641CA0
:10030000012000F073FD1048006800F0080008B1FB
:10031000502CF4DD002403E0641C012000F066FD95
:100320000948006800F0080008B9322CF4DB1E20F0
:1003300000F05CFD0448006800F0080008B10120EE
:1003400010BD0020FCE70000080C014070B500243F
:10035000002506E06006040EFFF7CEFF0443681C8C
:10036000C5B2082DF6DB204670BD000010B5FFF7C2
:10037000ADFF0948006820F0080007490860142014
:1003800000F010FD0448006860F0080002490860B1
:100390001E2000F02BFD10BD0C0C014010B5FFF726
:1003A000E5FFFFF70BFF10BD70472DE9F041024656
:1003B00000250026002000230024002791F803C018
:1003C0000CF00F0591F803C00CF0100CBCF1000FFD
:1003D00003D091F802C04CEA050591F800C0BCF1C9
:1003E000000F31D0146800202BE04FF0010C0CFA04
:1003F00000F3B1F800C00CEA03069E4220D183004E
:100400004FF00F0C0CFA03F7BC4305FA03FC4CEA5F
:10041000040491F803C0BCF1280F06D14FF0010C81
:100420000CFA00FCC2F814C00AE091F803C0BCF159
:10043000480F05D14FF0010C0CFA00FCC2F810C0B7
:10044000401C0828D1D31460B1F800C0BCF1FF0FE4
:1004500034DD546800202EE000F1080C4FF0010854
:1004600008FA0CF3B1F800C00CEA03069E4221D151
:1004700083004FF00F0C0CFA03F7BC4305FA03FCA2
:100480004CEA040491F803C0BCF1280F05D100F137
:10049000080C08FA0CF8C2F8148091F803C0BCF1FB
:1004A000480F07D100F1080C4FF0010808FA0CF8CA
:1004B000C2F81080401C0828CED35460BDE8F081FB
:1004C0001CB501210C2000F0BFF84FF49040ADF8AE
:1004D000040010208DF8070003208DF8060001A904
:1004E0000848FFF762FF4FF40060ADF800001020ED
:1004F0008DF8030003208DF8020069460248FFF7DB
:1005000054FF1CBD000C01400008014000BFFEE785
:100510000EB501210C2000F097F80120ADF808007D
:1005200028208DF80B0002A90C48FFF73EFF4FF47E
:100530008070ADF8040048208DF8070001A9074835
:10054000FFF733FF4FF48060ADF8000048208DF8CE
:10055000030069460248FFF728FF0EBD000801406E
:10056000000C014000BFFEE72DE9F04F15461E4686
:1005700000BF01F00703304F3A684FF6FF073A40DB
:100580002E4F174347EA03222B4F3A6000BF0B461A
:100590002F46B44603F00702C2F1070ABAF1040F6E
:1005A00002D94FF0040A01E0C2F1070AD14602F174
:1005B000040ABAF1070F02D24FF0000A01E0A2F1DB
:1005C000030AD0464FF0010A0AFA09FAAAF1010A11
:1005D0000AEA070A0AFA08FA4FF0010B0BFA08FBBD
:1005E000ABF1010B0BEA0C0B4AEA0B0400BF03460C
:1005F0002246002B0BDA17074FEA17680E4F0C370D
:1006000003F00F0CACF1040C07F80C8005E01707A1
:100610004FEA176C0A4F07F803C000BF00BF00F095
:100620001F0301229A4043099B0003F1E023C3F812
:10063000002100BFBDE8F08F0CED00E00000FA05DE
:1006400000E400E07047704729B1064A926902430E
:10065000044B9A6104E0034A92698243014B9A6118
:10066000704700000010024030B500210022002435
:1006700000232D4D6D6805F00C0121B1042905D032
:10068000082923D105E0294D056022E0274D0560AA
:100690001FE0254D6D6805F47012234D6D6805F45B
:1006A0008034022505EB92421CB9214D554305606B
:1006B0000BE01D4D6D6805F400351DB11C4D554313
:1006C000056002E0194D5543056002E0174D0560D5
:1006D00000BF00BF144D6D6805F0F0010909154D0C
:1006E0006B5C0568DD4045600F4D6D6805F4E061A9
:1006F000090A104D6B5C4568DD4085600A4D6D68E8
:1007000005F46051C90A0B4D6B5C4568DD40C5605E
:10071000054D6D6805F44041890B074D6B5CC5685C
:10072000B5FBF3F5056130BD0010024000127A0000
:1007300000093D000000002010000020704710B5A7
:1007400000F002F810BD00000CB5002001900090F0
:100750003348006840F480303149086000BF3048B9
:10076000006800F4003000900198401C019000984F
:1007700018B90198B0F5A06FF1D12948006800F4CC
:10078000003010B10120009001E00020009000989E
:10079000012843D12348006840F010002149086037
:1007A0000846006820F0030008600846006840F032
:1007B000020008601A4840681949486008464068C5
:1007C00048600846406840F48060486008464068D9
:1007D00020F47C1048600846406840F4E810486007
:1007E0000846006840F08070086000BF0C48006850
:1007F00000F000700028F9D00948406820F003009C
:10080000074948600846406840F00200486000BF61
:100810000348406800F00C000828F9D10CBD000026
:1008200000100240002002407047000010B513483D
:10083000006840F00100114908600846406810490E
:1008400008400E494860084600680E4908400B49B8
:1008500008600846006820F4802008600846406868
:1008600020F4FE0048604FF41F008860FFF767FF28
:100870004FF000600449086010BD00000010024005
:100880000000FFF8FFFFF6FE08ED00E000B599B0AC
:1008900064216846FFF74DFC0D48008800F02000F9
:1008A00098B169460A4800F01BF86946084800F00C
:1008B00058F9072207A16846FFF746FC28B9074800
:1008C000006880F400600549086019B000BD0000B0
:1008D000003801404C4544315F465A000C08014045
:1008E00070B505460C46284600F014F8207004E068
:1008F000641C284600F00EF82070207828B120787B
:100900000D2802D020780A28F2D10021601C04466C
:10091000017070BD70B50546002400BF2021054858
:1009200000F076F80128F9D1024800F00FF9C4B2BE
:10093000204670BD0038014010B5044600BF40217C
:10094000044800F065F80128F9D12146014800F07B
:1009500002F910BD0038014010B586B004460121EF
:100960000420FFF771FE01218803FFF76DFE0121CE
:100970000846FFF769FE4FF40070ADF81400182028
:100980008DF8170003208DF8160005A91848FFF709
:100990000CFD4FF48060ADF8140004208DF81700B2
:1009A00005A91348FFF701FD01940020ADF80800E8
:1009B000ADF80A00ADF80C00ADF810000C20ADF851
:1009C0000E0001A90B4800F055F8012240F2255114
:1009D000084800F02AF80123072204212520FFF708
:1009E000C3FD0121034800F007F806B010BD000068
:1009F000000801400038014021B1828942F40052D0
:100A0000828104E082894DF6FF731A40828170472B
:100A100002460020B1F5007F00D100BF13880B40D3
:100A20000BB1012000E000207047F0B50346002420
:100A300000260025002040F66A17B94200D100BF09
:100A40001846C1F3421401F01F06012707FA06F504
:100A5000012C01D10C3004E0022C01D1103000E057
:100A600014301AB107682F43076002E00768AF43EC
:100A70000760F0BD2DE9F04786B005460E4600241C
:100A8000A24600BFA1460027B08900B100BF2F4693
:100A90002C8A4CF6FF700440F08804432C82AC8909
:100AA0004EF6F3100440B088318908437189084339
:100AB0000443AC81AC8A4FF6FF400440B089044344
:100AC000AC8201A8FFF7D0FD1F48874202D1DDF8B4
:100AD00010A001E0DDF80CA0A88900F4004040B1AE
:100AE0000AEBCA0000EB0A1031684900B0FBF1F8CC
:100AF00007E00AEBCA0000EB0A1031688900B0FB7E
:100B0000F1F86420B8FBF0F004012009642101FB36
:100B10001089A88900F4004040B1322000EBC900E0
:100B2000B0FBF1F000F00700044308E0322000EBD6
:100B300009106421B0FBF1F000F00F0004432C8198
:100B400006B0BDE8F0870000003801400146888803
:100B5000C0F308007047C1F308028280704700BFED
:100B6000FEE770B506460C46002500BF605DFFF746
:100B7000E3FE6D1C605D0028F8D100BF40213046C7
:100B8000FFF746FF0028F9D070BD00000FB4054BF9
:100B900010B503A9044A029800F018F810BC5DF8DB
:100BA00014FB0000210D00081400002002E008C81A
:100BB000121F08C1002AFAD170477047002001E0D7
:100BC00001C1121F002AFBD1704700002DE9FF4F21
:100BD00089B09B460446002506E025280BD05A46DE
:100BE0000B999047641C6D1C20780028F5D10DB03E
:100BF0002846BDE8F08F0027B8460122474900E0AB
:100C0000074314F8013F203B02FA03F00842F7D1F2
:100C100020782E2819D114F8010F47F004072A284C
:100C20000ED06FF02F022078A0F1300109290CD8E6
:100C300008EB880102EB410100EB0108641CF2E7BC
:100C40000A98641C50F8048B0A9020780028CED0B3
:100C5000642808D0692806D075281ED05A460B99FA
:100C600090476D1C58E00A994FF00A0901C90A9192
:100C7000002802DA40422D2102E0390504D52B215B
:100C80008DF82010012103E0F90704D02021F7E7B7
:100C90008A4608AE0DE00021FAE70A994FF00A09EA
:100CA00001C90A91F7E74946FFF75DFA303106F8C6
:100CB000011D0028F7D1ADEB060000F120097807EF
:100CC00001D44FF00108C84502DDA8EB090000E09F
:100CD00000208046002706E008A85A46C05D0B9910
:100CE00090476D1C7F1C5745F6DB04E030205A46C8
:100CF0000B9990476D1CB8F10001A8F10108F5DCD3
:100D000005E016F8010B5A460B9990476D1CB9F196
:100D10000001A9F10109F4DC641C65E70928010060
:100D200070B504460D46E0B2FFF706FE204670BDE2
:100D30001CB5002001900090FFF7C2FBFFF7E8FB15
:100D40004FF41650FFF708FE03E04FF4FA7000F07E
:100D500029F8FFF723FB0028F7D14FF4FA7000F0D1
:100D600021F84FF4FA7000F01DF84FF4FA7000F01B
:100D700019F80EE0694601A8FFF768FA9DF800200F
:100D80009DF8041003A0FFF701FF4FF4FA7000F084
:100D900009F8EFE752483D25640954656D703D251B
:100DA000640D0A004FF0E021096921F004014FF0C1
:100DB000E022116142F228314143516100219161E9
:100DC0001146096941F00101116100BF4FF0E021B6
:100DD000096901F480310029F8D04FF0E021096958
:100DE00021F001014FF0E022116170474FF0E02146
:100DF000096921F004014FF0E022116100EBC0010C
:100E00005161002191611146096941F001011161AF
:100E100000BF4FF0E021096901F480310029F8D0CA
:100E20004FF0E021096921F001014FF0E02211614A
:100E300070470000540E0008000000201800000059
:100E4000AC0B00086C0E0008180000200004000025
:100E5000BC0B0008000000000102030401020304AF
:0C0E600006070809020406080000000054
:04000005080000ED02
:00000001FF
